:020000040800F2
:1000000000A00020B9020008C5120008C9120008AB
:10001000CD120008D1120008D5120008000000001F
:10002000000000000000000000000000D9120008DD
:10003000DD12000800000000E1120008E5120008CF
:10004000BD030008BD030008BD030008BD03000890
:10005000BD030008BD030008BD030008BD03000880
:10006000BD030008BD030008BD030008BD03000870
:10007000BD030008BD030008BD030008BD03000860
:10008000BD030008BD030008BD030008BD03000850
:10009000BD030008BD030008BD030008BD03000840
:1000A000BD030008BD030008BD030008BD03000830
:1000B000BD0300080D130008BD030008BD030008C0
:1000C000BD030008BD030008BD030008BD03000810
:1000D000BD03000831130008BD030008BD0300087C
:1000E000BD030008BD030008BD030008BD030008F0
:1000F000BD030008BD030008BD030008BD030008E0
:10010000000000000000000000000000BD03000827
:10011000BD030008BD030008BD030008BD030008BF
:10012000BD030008BD030008BD030008BD030008AF
:10013000BD030008BD03000800000000000000002F
:10014000BD030008BD030008BD0300080000000057
:10015000000000000000000000000000000000009F
:100160000000000000000000BD030008BD030008FF
:10017000BD030008000000000000000000000000B7
:1001800000000000BD03000800B583B000F0E2FBF2
:10019000384B394A1360394A136039490CE00A6810
:1001A0004B6801F10C04886803E01168196004339E
:1001B00004329842F9D82146324B9942EFD32E4B64
:1001C0001A68314B9A4204D12C4B1A682F4B9A4231
:1001D00000D0FEE7274B2E4A13602E4A13602E4BA9
:1001E0000AE0194651F8082B5B6802E00020106015
:1001F00004329A42FAD30B46284A9342F1D3244B55
:100200001B6813B9234B1B6803B1FEE700F0AEFB7C
:10021000694601A800F03CFB214C224B1C1BA4109A
:10022000002504E01E4B53F8253098470135AC42B9
:10023000F8DC1D4C1D4B1C1BA410002504E01A4BC0
:1002400053F8253098470135AC42F8DC0099019805
:1002500000F0D8FC0546164C164B1C1BA41004E0FD
:10026000013C134B53F824309847002CF8DC284607
:1002700000F0E0FABABADECA00000020A4000020B4
:10028000C0030008D8030008785634123254769818
:10029000A800002048010020D8030008E803000857
:1002A000E8030008E8030008E8030008E803000882
:1002B000E8030008E803000808B5FFF765FF00BF82
:1002C00000BEFEE71EF0040F0CBFEFF30880EFF353
:1002D00009807146364A10472DE9F04182B0044644
:1002E0008846084B5E6B9F6B9D6A074800F0E2FAF8
:1002F000CDF800803B4632462946204600F03AFBC6
:1003000000BEFEE700ED00E0DC1F000800BEFEE7D7
:100310001EF0040F0CBFEFF30880EFF30980714665
:10032000244A10472DE9F04182B004468846084B24
:100330005E6B9F6B9D6A074800F0BCFACDF80080A9
:100340003B4632462946204600F014FB00BEFEE73D
:1003500000ED00E0EC1F00081EF0040F0CBFEFF3EF
:100360000880EFF309807146134A10472DE9F041E8
:1003700082B004468846084B5E6B9F6B9D6A0748B7
:1003800000F098FACDF800803B46324629462046D8
:1003900000F0F0FA00BEFEE700ED00E0F81F0008F4
:1003A00000BEFEE700BEFEE700BEFEE770470000AD
:1003B000D9020008250300086D03000800BEFEE70F
:1003C0007020000800000020A80000207020000815
:1003D0000000001000000010A80000204C010020C8
:0803E0000000001000000010F5
:1003F00070B505460E46B0F1904F16D0404B98426E
:1004000013D003F5806398420FD003F580639842C0
:100410000BD003F58063984207D003F580639842C0
:1004200003D0B921374800F03BFA33681BB9BA2131
:10043000344800F035FA3379032B03D9BB21314816
:1004400000F02EFAF379022B03D9BC212D4800F0DD
:1004500027FA002451E00123A340326893434BD193
:100460003379013BDBB2012B2CD87379013BDBB232
:10047000022B03D9CC21234800F012FAA9686300AB
:1004800003229A4021EA0202AA60A968727902FA5C
:1004900003F30B43AB60B379012B03D9D321194884
:1004A00000F0FEF9AA8891B2A3B201229A4021EA93
:1004B0000202AA80A98889B2B27902FA03F30B4337
:1004C0009BB2AB802A686300032101FA03F022EAA1
:1004D00000022A60286832799A4002432A60EA685A
:1004E000A0B24000814022EA0101E960E968F279A6
:1004F00002FA03F30B43EB6001340F2CABD970BD50
:10050000000400484C1D000838B504460D46B0F103
:10051000904F17D0254B984214D003F58063984232
:1005200010D003F5806398420CD003F580639842A5
:1005300008D003F58063984204D04FF49C711C48A6
:1005400000F0AEF96B1E9BB2012B28D9042D26D0EA
:10055000082D24D0102D22D0202D20D0402D1ED0AB
:10056000802D1CD0B5F5807F19D0B5F5007F16D051
:10057000B5F5806F13D0B5F5006F10D0B5F5805F7D
:100580000DD0B5F5005F0AD0B5F5804F07D0B5F5B1
:10059000004F04D040F23911054800F081F9238A58
:1005A0001D4201D0012038BD002038BD00040048A4
:1005B0004C1D000838B504460D46B0F1904F17D0D9
:1005C0000F4B984214D003F58063984210D003F586
:1005D000806398420CD003F58063984208D003F5FD
:1005E0008063984204D04FF4C471064800F058F973
:1005F00025B940F28911034800F052F9A56138BDD0
:10060000000400484C1D000838B504460D46B0F102
:10061000904F17D00F4B984214D003F58063984247
:1006200010D003F5806398420CD003F580639842A4
:1006300008D003F58063984204D04FF4CD7106488A
:1006400000F02EF925B940F29B11034800F028F97B
:10065000258538BD000400484C1D000810B504462F
:10066000C378012B03D981211F4800F019F9637861
:100670000F2B03D982211C4800F012F9A3780F2B0D
:1006800003D98321184800F00BF9E378FBB1174B2D
:10069000DB68DB43C3F30223C3F104010F22DA401A
:1006A000637803FA01F1A37813400B431B0122780E
:1006B000DBB20F490A4482F800332378580903F06B
:1006C0001F03012202FA03F341F8203010BD237802
:1006D0005A0903F01F03012101FA03F320320449F0
:1006E00041F8223010BD00BF801D000800ED00E081
:1006F00000E100E038B504460D460E4B034003B957
:1007000020B940F25C510C4800F0CAF8012D04D920
:1007100040F25D51084800F0C3F825B1074A53691B
:100720001C43546138BD054A536923EA04045461EB
:1007300038BD00BFA8FF81CEB41D000800100240E4
:1007400038B504460D460E4B034003B920B940F2BC
:10075000AC510C4800F0A4F8012D04D940F2AD5181
:10076000084800F09DF825B1074AD3691C43D461BD
:1007700038BD054AD36923EA0404D46138BD00BFFB
:10078000C83701CDB41D00080010024038B504463A
:100790000D46264B984227D0B0F1804F24D0A3F5C8
:1007A0009433984220D003F5806398421CD003F51F
:1007B0000063984218D003F58063984214D003F583
:1007C0009033984210D003F5406398420CD003F563
:1007D0008063984208D003F58063984204D040F6C5
:1007E0003341134800F05CF86B1E9BB2012B10D90B
:1007F000042D0ED0082D0CD0102D0AD0202D08D09D
:10080000402D06D0802D04D040F63441084800F039
:1008100047F82269E3682B40154202D01BB900203B
:1008200038BD002038BD012038BD00BF002C01407C
:10083000E41D0008FEE700BF08B5034800F052F8C9
:100840000120FFF7F7FF00BF141E000808B50D4B8D
:100850001B6813B90C4A0B4B1A600A4B1A68C31C6D
:1008600023F00303134409498B4206D900F0E6FD47
:100870000C2303604FF0FF3008BD02490B601046A7
:1008800008BD00BFAC0000204C010020009C0020EF
:1008900001230360014B0B60704700BF0400002080
:1008A00008B50A460146024800F004F8FFF7C4FF05
:1008B000681E00080FB400B583B004AB53F8042BD6
:1008C00001938021064800F0FDFD002803DD01466C
:1008D000034800F03BF803B05DF804EB04B0704748
:1008E000B400002010B5044600F0B9FD01462046D2
:1008F00000F02CF80121024800F028F810BD00BFDC
:10090000581F000810B400221AE04FF06043D3F8DB
:10091000803E13F0010F06D04FF06043D3F8003E45
:1009200013F0010F01D110460DE04FF060431B683A
:10093000002BFAD004784FF060431C700132013074
:100940008A42E2D3084610BC704700BF08B5FFF7E3
:10095000D9FF08BD08B500F0DDF8024B024A9A60E5
:1009600008BD00BF00ED00E00000000808B500F081
:1009700003F908BDF8B504460D4617461E4626483D
:10098000FFF798FF21682548FFF794FF6168244826
:10099000FFF790FFA1682348FFF78CFFE16822482A
:1009A000FFF788FF21692148FFF784FF616920482C
:1009B000FFF780FFA1691F48FFF77CFFE1691E4830
:1009C000FFF778FF1D48FFF775FF29461C48FFF722
:1009D00071FF1C4CE16A1C48FFF76CFF216B1B4840
:1009E000FFF768FFE16B1A48FFF764FF15F0800F0F
:1009F00003D039461748FFF75DFF15F4004F03D0C9
:100A000031461548FFF756FF1448FFF753FF069984
:100A10001348FFF74FFFF8BDC01E0008D01E0008A6
:100A2000E01E0008F01E0008001F0008101F00084C
:100A3000201F0008301F0008401F0008501F00083A
:100A40005C1F000800ED00E06C1F00087C1F000820
:100A50008C1F00089C1F0008AC1F0008BC1F00086A
:100A6000C41F000882B0002301930093274A136833
:100A700043F480331360254B1B6803F40033009369
:100A8000019B01330193009B1BB9019BB3F5A06F40
:100A9000F1D11E4B1B6813F4003F02D001230093D9
:100AA00001E000230093009B012B2CD11222184B54
:100AB0001A60A3F580535A685A605A685A605A6897
:100AC00042F480625A605A6822F47C125A605A6872
:100AD00042F4E8125A601A6842F080721A600B4BB6
:100AE0001B6813F0007FFAD0084B5A6822F003020B
:100AF0005A605A6842F002025A60044B5B6803F085
:100B00000C03082BF9D102B0704700BF001002405F
:100B10000020024008B5144B1A6842F001021A6026
:100B20005968124A0A405A601A6822F0847222F404
:100B300080321A601A6822F480221A605A6822F4FD
:100B4000FE025A60DA6A22F00F02DA62196B084A72
:100B50000A401A6300229A60FFF784FF4FF0006298
:100B6000044B9A6008BD00BF001002400CC07FF823
:100B7000CCFC00FF00ED00E01D4B5B6803F00C03B4
:100B8000042B06D0082B08D01BBB1A4A1A4B1A603C
:100B900022E0184A184B1A601EE0154A5368526842
:100BA000C3F38343023312F4803F05D1134A02FB9F
:100BB00003F3114A13600FE00D4AD26A02F00F02EC
:100BC000511C0C4AB2FBF1F202FB03F30A4A136018
:100BD00002E0084A084B1A60054B5B68C3F3031335
:100BE000074AD35CDAB204490B68D3400B60704704
:100BF0000010024000127A001C00002000093D0095
:100C00000C00002008B500F0CBFB00F0D7FB00F093
:100C100029FA00F0ABFAFCE708B501380A284AD8EF
:100C2000DFE800F0060D141B21272C31373D43006F
:100C30004FF480614FF09040FFF766FC3CE04FF4CA
:100C400000714FF09040FFF75FFC35E04FF480718A
:100C50004FF09040FFF758FC2EE04FF40071184819
:100C6000FFF752FC28E04FF480711548FFF74CFC69
:100C700022E080211248FFF747FC1DE04021104888
:100C8000FFF742FC18E04FF400410E48FFF73CFC30
:100C900012E04FF480410B48FFF736FC0CE04FF4B4
:100CA00000510848FFF730FC06E04FF4805105483A
:100CB000FFF72AFC00E00020B0FA80F0400908BDF0
:100CC000000800480004004808B50138162800F262
:100CD0004481DFE810F01700250031003F004D008F
:100CE0005B00670073007F008B009700A500B300D6
:100CF000C100CF00DB00E700F300FF000D011B0186
:100D000029013701012905D008214FF09040FFF754
:100D10007BFC08BD08214FF09040FFF74BFC08BD5D
:100D2000012904D010218D48FFF76EFC08BD102169
:100D30008A48FFF73FFC08BD012905D020214FF06C
:100D40009040FFF761FC08BD20214FF09040FFF775
:100D500031FC08BD012905D040214FF09040FFF73C
:100D600053FC08BD40214FF09040FFF723FC08BD25
:100D7000012905D080214FF09040FFF745FC08BDC8
:100D800080214FF09040FFF715FC08BD012904D0E9
:100D900010217348FFF738FC08BD10217048FFF799
:100DA00009FC08BD012904D020216D48FFF72CFC67
:100DB00008BD20216A48FFF7FDFB08BD012904D0CA
:100DC00001216848FFF720FC08BD01216548FFF7B5
:100DD000F1FB08BD012904D002216248FFF714FC91
:100DE00008BD02215F48FFF7E5FB08BD012904D0DB
:100DF00004215C48FFF708FC08BD04215948FFF7AF
:100E0000D9FB08BD012905D04FF480615548FFF793
:100E1000FBFB08BD4FF480615248FFF7CBFB08BDD8
:100E2000012905D04FF400614E48FFF7EDFB08BDE6
:100E30004FF400614B48FFF7BDFB08BD012905D009
:100E400002214FF09040FFF7DFFB08BD02214FF079
:100E50009040FFF7AFFB08BD012905D001214FF0FD
:100E60009040FFF7D1FB08BD01214FF09040FFF704
:100E7000A1FB08BD012904D008213948FFF7C4FBB4
:100E800008BD08213648FFF795FB08BD012904D0AD
:100E900004213348FFF7B8FB08BD04213048FFF7B1
:100EA00089FB08BD012904D002212D48FFF7ACFBC6
:100EB00008BD02212A48FFF77DFB08BD012904D0A7
:100EC00001212748FFF7A0FB08BD01212448FFF7B7
:100ED00071FB08BD012905D04FF480412048FFF780
:100EE00093FB08BD4FF480411D48FFF763FB08BD2D
:100EF000012905D04FF400511948FFF785FB08BDC3
:100F00004FF400511648FFF755FB08BD012905D0E5
:100F10004FF400711348FFF777FB08BD4FF40071E1
:100F20001048FFF747FB08BD012905D04FF4807139
:100F30000C48FFF769FB08BD4FF480710948FFF7C3
:100F400039FB08BD012904D020210648FFF75CFBCE
:100F500008BD20210348FFF72DFB08BD0014004801
:100F6000000800480004004808B5012802D0022803
:100F70000ED008BD012905D04FF480610B48FFF762
:100F800043FB08BD4FF480610848FFF713FB08BD21
:100F9000012905D04FF400610448FFF735FB08BD77
:100FA0004FF400610148FFF705FB08BD0008004849
:100FB00008B5012802D0022804D008BD0120FFF79F
:100FC00083FE08BD0220FFF77FFE08BD08B501289B
:100FD00002D0022804D008BD0320FFF775FE08BD2B
:100FE0000420FFF771FE08BD08B5012802D00228D1
:100FF00004D008BD0520FFF767FE08BD0620FFF7F7
:1010000063FE08BD08B501460720FFF75DFE08BD79
:1010100008B50120FFF700FE08BD00BF08B503209A
:10102000FFF7FAFD08BD00BF08B50420FFF7F4FD87
:1010300008BD00BF08B50520FFF7EEFD08BD00BFE5
:1010400008B50620FFF7E8FD08BD00BF08B507207A
:10105000FFF7E2FD08BD00BF08B50820FFF7DCFD83
:1010600008BD00BF2DE9F04182B001214FF40030EE
:10107000FFF740FB01214FF48020FFF73BFB0121EC
:101080004FF40020FFF736FB01214FF48000FFF7FB
:1010900031FBEB23009301258DF8045000248DF8DB
:1010A00006408DF8074003268DF8056069464FF02D
:1010B0009040FFF79DF940F6277300938DF8045098
:1010C0008DF806408DF807408DF80560244F69467D
:1010D0003846FFF78DF946F63F4300938DF80450EC
:1010E0008DF806408DF807408DF80560DFF87880B0
:1010F00069464046FFF77CF9112300938DF80450B0
:101100008DF806408DF807408DF805606946154852
:10111000FFF76EF94FF4E06300938DF804408DF80B
:10112000075069464FF09040FFF762F94FF4707333
:1011300000938DF804408DF8075069464046FFF74C
:1011400057F94FF4704300938DF804408DF8075021
:1011500069463846FFF74CF902B0BDE8F08100BFA0
:1011600000040048001400480008004808B5FFF7D4
:101170004FFF78B101210846FFF71AFF0120FFF762
:1011800041FF01210846FFF7EFFE00210220FFF793
:10119000EBFE08BDFFF742FF78B101210846FFF7DB
:1011A00015FF0120FFF72EFF01210846FFF7DCFEA7
:1011B00000210220FFF7D8FE08BDFFF735FF78B108
:1011C00001210220FFF702FF0120FFF71BFF012191
:1011D0000846FFF7C9FE00210220FFF7C5FE08BD43
:1011E000FFF728FF78B101210846FFF7FDFE012037
:1011F000FFF708FF01210846FFF7B6FE0021022095
:10120000FFF7B2FE08BDFFF71BFF78B101210220F6
:10121000FFF7EAFE0120FFF7F5FE01210846FFF780
:10122000A3FE00210220FFF79FFE08BDFFF70EFF7F
:1012300060B101210B20FFF747FD01210846FFF7B0
:1012400093FE00210220FFF78FFE08BDFFF704FF89
:1012500060B101210C20FFF737FD01210846FFF79F
:1012600083FE00210220FFF77FFE08BD00210B2036
:10127000FFF72AFD00210C20FFF726FD00210120A9
:10128000FFF796FE00210220FFF792FE00210120C9
:10129000FFF79CFE00210220FFF798FE00210120AD
:1012A000FFF7A2FE00210220FFF79EFE0020FFF7BD
:1012B000A9FE00210120FFF757FE01210220FFF7C0
:1012C00053FE08BD704700BFFEE700BFFEE700BF4A
:1012D000FEE700BFFEE700BF704700BF704700BFDA
:1012E000704700BF074B1B681BB1064A1368013BE0
:1012F0001360054B1B681BB1034A1368013B136065
:10130000704700BF340100203801002008B51021CB
:101310000648FFF73BFA38B1044A136923F010037B
:101320001361032000F02CF808BD00BF000400404A
:10133000704700BF10B582B0044601210D4B53F831
:101340002000FFF7D7F90C4B33F81430009301233A
:101350008DF8043000228DF806208DF80730032325
:101360008DF805306946054B53F82400FFF740F827
:1013700002B010BD0820000828200008200000202E
:10138000054B53F820108B8A9AB2044B33F8103077
:1013900053408B82704700BF2000002028200008A7
:1013A000044B09225A60F021034A82F823100322D9
:1013B0001A60704710E000E000ED00E030B583B047
:1013C00001210220FFF7BCF91D238DF80430002510
:1013D0008DF8055001248DF806408DF8074001A8CE
:1013E000FFF73CF92846FFF7A5FF2046FFF7A2FFCD
:1013F0000220FFF79FFF0320FFF79CFF0E4B1A8888
:1014000092B222F0100292B21A809A6822F48032CC
:1014100022F007029A6048F6A042DA624FF4FA62BC
:101420001A855C61DA6842F01002DA601A8892B2BA
:1014300022431A8003B030BD00040040014B1868FD
:10144000704700BFA000002010B5431E0A4491421F
:1014500004D011F8014B03F8014FF8E710BD034623
:1014600013F8012B002AFBD1181A0138704730B548
:10147000141E05469BB0184604DA8B232B604FF0F0
:10148000FF301DE04FF40273ADF80C3014BF04F1CF
:10149000FF332346029305934FF6FF7300910491A7
:1014A000ADF80E3002461E9B6946284600F072F8E1
:1014B000431CBCBF8B232B6014B1009B00221A700D
:1014C0001BB030BD07B5009313460A4601460348DA
:1014D0000068FFF7CCFF03B05DF804FBA00000201C
:1014E0002DE9F0478E689E4282460C46914698460A
:1014F0003ED88A8912F4906F3AD0256809696F1A2C
:101500006569022305EB450595FBF3F57B1C434418
:101510009D4238BF1D4653050FD5294600F082FB7A
:10152000064698B13A462169FFF78EFFA38923F456
:10153000906343F08003A38113E02A4600F0C6FBCA
:10154000064670B92169504600F026FB0C23CAF804
:101550000030A38943F04003A3814FF0FF30BDE882
:10156000F087266165613E44ED1B2660A560464616
:10157000464528BF464632464946206800F0F0FA04
:10158000A3689B1BA36023681E4426600020BDE85F
:10159000F08700002DE9F04F9DB0804603938B89C2
:1015A0001C060D4616460DD50B695BB9402100F0AF
:1015B00039FB2860286118B90C23C8F80030CDE049
:1015C00040236B610023099320238DF82930DFF835
:1015D0009CB130238DF82A3037463C4614F8013B45
:1015E0001BB9B7EB060910D003E0252BF9D027462D
:1015F000F3E74B46324629464046FFF771FF01307C
:1016000000F0A780099B4B4409933B78002B00F026
:10161000A08000234FF0FF320493079305920693B6
:101620008DF853301A930126052221784E4800F098
:1016300047FA671C049B38B14B4A801A06FA00F03F
:10164000184304903C46EFE7D90644BF20228DF8AA
:1016500053201A0744BF2B228DF8532022782A2AC0
:1016600003D0079A00210A200BE0039A111D12688B
:101670000391002A10DA524243F0020007920490CC
:101680000BE0274601343B78303B092B03D800FBA5
:1016900002320121F5E701B107923B782E2B1ED1D2
:1016A0007B782A2B0AD1039B1A1D1B680392002BFF
:1016B000B8BF4FF0FF330237059310E000230593C6
:1016C000781C19460A24074601303A78303A092A2C
:1016D00003D804FB01210123F5E703B1059103229F
:1016E0003978224800F0ECF940B14023CBEB000000
:1016F00003FA00F0049B18430490013739781C4822
:101700008DF8281006227E1C00F0DAF988B1194BFA
:1017100033B9039B073323F007030833039314E023
:1017200003AB00932A46144B04A94046AFF3008054
:1017300007E003AB00932A460F4B04A9404600F094
:1017400093F8B0F1FF3F824603D0099B53440993BD
:1017500042E7AB895B0601D4099801E04FF0FF3006
:101760001DB0BDE8F08F00BF3A20000840200008FF
:101770004420000800000000E11400082DE9F047B3
:1017800091461F460A698B68DDF820809342B8BFF6
:101790001346C9F8003091F8432006460C4612B1B2
:1017A0000133C9F800302368990642BFD9F80030E8
:1017B0000233C9F80030256815F0060510D104F190
:1017C000190A07E00123524639463046C047013026
:1017D0001AD00135E368D9F800209B1A9D42F1DB4D
:1017E00094F843302268003318BF012392060FD5C6
:1017F000E1185A1C302081F84300224494F8451027
:1018000082F84310023303E04FF0FF30BDE8F08769
:1018100004F1430239463046C0470130F4D0226813
:10182000D9F80050E36802F00602042A08BF5D1BE5
:101830002269A3680CBF25EAE57500259342C4BF61
:101840009B1AED184FF000091A344D4509D00123B9
:10185000224639463046C0470130D5D009F101094A
:10186000F3E70020BDE8F0872DE9F04317460A7E34
:1018700085B06E2A984606460C460C9B01F1430E35
:1018800000F0AE8011D8632A22D009D8002A00F0D7
:10189000BB80582A40F0CA8081F84520834955E032
:1018A000642A1ED0692A1CD0C0E0732A00F0B080E0
:1018B00009D86F2A2ED0702A40F0B8800A6842F00A
:1018C00020020A603EE0752A24D0782A3AD0ADE0A2
:1018D0001A6801F14205111D1960136884F842303D
:1018E000A8E021681A6811F0800F02D0111D19605C
:1018F00008E011F0400F02F10401196002D0B2F9C2
:10190000003000E01368002B3CDA2D225B4284F8A3
:10191000432037E021681A6811F0800F02D0111DB2
:10192000196007E011F0400F02F10401196001D0C5
:10193000138800E01368227E5C496F2A14BF0A22D4
:1019400008221BE078225A4984F84520226818684A
:1019500012F0800F00F104051D6003D1550601D57A
:10196000038800E00368D00744BF42F020022260F1
:101970001BB9226822F0200222601022002084F885
:10198000430001E049490A226568A560002D08DB93
:10199000206820F0040020602BB9002D7DD1754611
:1019A0000CE0002B79D07546B3FBF2F002FB10334C
:1019B000CB5C05F8013D03460028F5D1082A0BD180
:1019C0002368DA0708D5236962689A42DEBF3023AC
:1019D00005F8013C05F1FF35C5EB0E0323612EE050
:1019E00008681A68496910F0800F03D0101D18604C
:1019F000136808E010F0400F02F10400186013684B
:101A000001D0198000E0196000232361754616E0BB
:101A10001A68111D1960156862680021284600F0D7
:101A20004FF808B1401B6060636804E004F14205B0
:101A300084F8422001232361002384F84330CDF849
:101A400000803B4603AA21463046FFF797FE01304F
:101A500002D14FF0FF3026E023692A46394630464E
:101A6000C0470130F5D023689B0710D5002504F14D
:101A7000190907E001234A4639463046C04701307C
:101A8000E7D00135E368039A9B1A9D42F2DBE068D8
:101A9000039B9842B8BF184605E00B7884F84230A3
:101AA00004F142058AE705B0BDE8F0834B20000849
:101AB0005C200008000000000000000000000000A2
:101AC00001F0FF01102A2BDB10F0070F08D010F8EF
:101AD000013B013A8B422DD010F0070F42B3F6D1F3
:101AE000F0B441EA012141EA014122F007047FF00C
:101AF00000070023F0E80256083C85EA010586EA63
:101B0000010685FA47F5A3FA87F586FA47F6A5FA9E
:101B100087F68EB9EED1F0BC01F0FF0102F00702AA
:101B200032B110F8013B013A83EA010313B1F8D155
:101B30000020704701387047002D06BF3546033836
:101B4000073815F0010F07D1013015F4807F02BF6F
:101B5000013015F4C03F0130F0BC0138704700BFC0
:101B6000884210B501EB020301D8421E0BE09842F7
:101B7000FBD28118D21AD34204D013F8014D01F8D8
:101B8000014DF8E710BD994204D011F8014B02F85D
:101B9000014FF8E710BD000030B500293ED051F8E4
:101BA000042C0B1F1E49002AB8BF9B180A680C465C
:101BB00012B95A600B6030BD9A420ED91968581894
:101BC000824204BF106852685A6004BF0918196045
:101BD000236030BD994203D80A4651680029F9D1E3
:101BE000146815199D420AD11B682344D0188142FC
:101BF000136013D10868034413604B680DE002D9E9
:101C00000C23036030BD18681C18A14204BF0C6887
:101C10004968596004BF00191860536030BD00BFA7
:101C20004001002070B5CD1C25F0030508350C2DB2
:101C300038BF0C25002D064603DA0C233360002044
:101C400070BDA942F9D81F4B1C681A462146A1B1A4
:101C50000B685B1B0ED40B2B03D90B60CC18CD503B
:101C60001EE08C420DBF63684B686360136018BF51
:101C70000C4615E00C464968E9E7134C23681BB98C
:101C8000304600F049F820602946304600F044F81C
:101C9000431CD2D0C41C24F00304A0420AD1256006
:101CA00004F10B00231D20F00700C31A09D05A428B
:101CB000E25070BD211A304600F02EF80130EED10E
:101CC000BBE770BD400100203C010020F8B507468D
:101CD00015460E4621B91146BDE8F840FFF7A2BFF0
:101CE0001AB9FFF759FF2846F8BD00F025F88542DC
:101CF0000ED929463846FFF795FF044650B13146C4
:101D00002A46FFF7A1FB31463846FFF745FF01E0C1
:101D10003046F8BD2046F8BD38B5064C00230546D0
:101D200008462360FEF792FD431C02D1236803B1ED
:101D30002B6038BD4401002051F8040C0028BEBFC0
:101D4000091851F8043CC018043870472E2E2F7320
:101D5000797374656D2F7372632F73746D3332668C
:101D6000332D7374647065726970682F73746D338A
:101D700032663330785F6770696F2E630000000051
:101D80002E2E2F73797374656D2F7372632F737496
:101D90006D333266332D7374647065726970682FA9
:101DA00073746D3332663330785F6D6973632E639D
:101DB000000000002E2E2F73797374656D2F7372DF
:101DC000632F73746D333266332D73746470657270
:101DD0006970682F73746D3332663330785F726365
:101DE000632E63002E2E2F73797374656D2F7372BB
:101DF000632F73746D333266332D73746470657240
:101E00006970682F73746D3332663330785F74692C
:101E10006D2E630061626F727428292C20657869C9
:101E200074696E672E2E2E002C2066756E637469A1
:101E30006F6E3A2000000000617373657274696F01
:101E40006E2022257322206661696C65643A2066E3
:101E5000696C6520222573222C206C696E65202513
:101E600064257325730A00006173736572745F7073
:101E70006172616D2829206661696C65643A20662B
:101E8000696C6520222573222C206C696E652025E3
:101E9000640A00006D61696E28617267633D2564A4
:101EA0002C20617267763D5B000000002C20000052
:101EB00022257322000000005D293B0A000000007B
:101EC000537461636B206672616D653A0A000000AD
:101ED000205230203D2020253038580A00000000D4
:101EE000205231203D2020253038580A00000000C3
:101EF000205232203D2020253038580A00000000B2
:101F0000205233203D2020253038580A00000000A0
:101F100020523132203D20253038580A0000000080
:101F2000204C52203D2020253038580A0000000067
:101F3000205043203D2020253038580A0000000062
:101F400020505352203D20253038580A0000000010
:101F50004653522F4641523A0A000000204346534E
:101F600052203D2020253038580A00002048465392
:101F700052203D2020253038580A00002044465386
:101F800052203D2020253038580A00002041465379
:101F900052203D2020253038580A0000204D4D4663
:101FA0004152203D20253038580A00002042464149
:101FB00052203D2020253038580A00004D697363B7
:101FC0000A000000204C522F4558435F524554559B
:101FD000524E3D20253038580A0000005B4861729F
:101FE000644661756C745D0A000000005B427573A5
:101FF0004661756C745D0A005B5573616765466187
:10200000756C745D0A0000000000200000002000D4
:102010000000200000002000000020000000200040
:1020200000002000000020000002000100040080E9
:1020300000080040001000204300232D302B20001A
:10204000686C4C0065666745464700303132333472
:102050003536373839414243444546003031323312
:0D20600034353637383961626364656600D7
:1020700078563412B000002000000000000000007C
:1020800000000000010203040607080900A24A0438
:1020900000100048001000480010004800100048E0
:1020A00000100048001000480010004800100048D0
:1020B0000000000000000000000000000000000020
:1020C0000000000000000000000000000000000010
:1020D00038200008000000000000000000000000A0
:1020E00000000000000000000000000000000000F0
:1020F00000000000000000000000000000000000E0
:1021000000000000000000000000000000000000CF
:082110004000002032547698D3
:040000050800018965
:00000001FF
