:020000040800F2
:1000000000A00020B9020008BD0B0008C10B0008C9
:10001000C50B0008C90B0008CD0B0008000000004C
:10002000000000000000000000000000D10B0008EC
:10003000D50B000800000000D90B0008DD0B0008FC
:10004000BD030008BD030008BD030008BD03000890
:10005000BD030008BD030008BD030008BD03000880
:10006000BD030008BD030008BD030008BD03000870
:10007000BD030008BD030008BD030008BD03000860
:10008000BD030008BD030008BD030008BD03000850
:10009000BD030008BD030008BD030008BD03000840
:1000A000BD030008BD030008BD030008BD03000830
:1000B000BD030008050C0008BD030008BD030008CF
:1000C000BD030008BD030008BD030008BD03000810
:1000D000BD030008290C0008BD030008BD0300088B
:1000E000BD030008BD030008BD030008BD030008F0
:1000F000BD030008BD030008BD030008BD030008E0
:10010000000000000000000000000000BD03000827
:10011000BD030008BD030008BD030008BD030008BF
:10012000BD030008BD030008BD030008BD030008AF
:10013000BD030008BD03000800000000000000002F
:10014000BD030008BD030008BD0300080000000057
:10015000000000000000000000000000000000009F
:100160000000000000000000BD030008BD030008FF
:10017000BD030008000000000000000000000000B7
:1001800000000000BD03000800B583B000F08CFB48
:10019000384B394A1360394A136039490CE00A6810
:1001A0004B6801F10C04886803E01168196004339E
:1001B00004329842F9D82146324B9942EFD32E4B64
:1001C0001A68314B9A4204D12C4B1A682F4B9A4231
:1001D00000D0FEE7274B2E4A13602E4A13602E4BA9
:1001E0000AE0194651F8082B5B6802E00020106015
:1001F00004329A42FAD30B46284A9342F1D3244B55
:100200001B6813B9234B1B6803B1FEE700F058FBD2
:10021000694601A800F0E6FA214C224B1C1BA410F1
:10022000002504E01E4B53F8253098470135AC42B9
:10023000F8DC1D4C1D4B1C1BA410002504E01A4BC0
:1002400053F8253098470135AC42F8DC0099019805
:1002500000F082FC0546164C164B1C1BA41004E053
:10026000013C134B53F824309847002CF8DC284607
:1002700000F08AFABABADECA00000020A40000200A
:10028000C0030008D8030008785634123254769818
:10029000A800002048010020D8030008E803000857
:1002A000E8030008E8030008E8030008E803000882
:1002B000E8030008E803000808B5FFF765FF00BF82
:1002C00000BEFEE71EF0040F0CBFEFF30880EFF353
:1002D00009807146364A10472DE9F04182B0044644
:1002E0008846084B5E6B9F6B9D6A074800F08CFA4E
:1002F000CDF800803B4632462946204600F0E4FA1D
:1003000000BEFEE700ED00E0CC18000800BEFEE7EE
:100310001EF0040F0CBFEFF30880EFF30980714665
:10032000244A10472DE9F04182B004468846084B24
:100330005E6B9F6B9D6A074800F066FACDF80080FF
:100340003B4632462946204600F0BEFA00BEFEE794
:1003500000ED00E0DC1800081EF0040F0CBFEFF306
:100360000880EFF309807146134A10472DE9F041E8
:1003700082B004468846084B5E6B9F6B9D6A0748B7
:1003800000F042FACDF800803B463246294620462E
:1003900000F09AFA00BEFEE700ED00E0E818000861
:1003A00000BEFEE700BEFEE700BEFEE770470000AD
:1003B000D9020008250300086D03000800BEFEE70F
:1003C0006019000800000020A80000206019000843
:1003D0000000001000000010A80000204C010020C8
:0803E0000000001000000010F5
:1003F00070B505460E46B0F1904F16D0404B98426E
:1004000013D003F5806398420FD003F580639842C0
:100410000BD003F58063984207D003F580639842C0
:1004200003D0B921374800F0E5F933681BB9BA2188
:10043000344800F0DFF93379032B03D9BB2131486D
:1004400000F0D8F9F379022B03D9BC212D4800F034
:10045000D1F9002451E00123A340326893434BD1EA
:100460003379013BDBB2012B2CD87379013BDBB232
:10047000022B03D9CC21234800F0BCF9A968630002
:1004800003229A4021EA0202AA60A968727902FA5C
:1004900003F30B43AB60B379012B03D9D321194884
:1004A00000F0A8F9AA8891B2A3B201229A4021EAE9
:1004B0000202AA80A98889B2B27902FA03F30B4337
:1004C0009BB2AB802A686300032101FA03F022EAA1
:1004D00000022A60286832799A4002432A60EA685A
:1004E000A0B24000814022EA0101E960E968F279A6
:1004F00002FA03F30B43EB6001340F2CABD970BD50
:10050000000400483C16000838B504460D46B0F11A
:10051000904F17D00F4B984214D003F58063984248
:1005200010D003F5806398420CD003F580639842A5
:1005300008D003F58063984204D04FF4C471064894
:1005400000F058F925B940F28911034800F052F93A
:10055000A56138BD000400483C16000838B50446C3
:100560000D46B0F1904F17D00F4B984214D003F5C1
:100570008063984210D003F5806398420CD003F555
:100580008063984208D003F58063984204D04FF40A
:10059000CD71064800F02EF925B940F29B110348B1
:1005A00000F028F9258538BD000400483C160008F5
:1005B00010B50446C378012B03D981211F4800F0F0
:1005C00019F963780F2B03D982211C4800F012F926
:1005D000A3780F2B03D98321184800F00BF9E37897
:1005E000FBB1174BDB68DB43C3F30223C3F1040108
:1005F0000F22DA40637803FA01F1A37813400B432A
:100600001B012278DBB20F490A4482F800332378B9
:10061000580903F01F03012202FA03F341F82030C6
:1006200010BD23785A0903F01F03012101FA03F3D7
:100630002032044941F8223010BD00BF7016000876
:1006400000ED00E000E100E038B504460D460E4B39
:10065000034003B920B940F25C510C4800F0CAF8DD
:10066000012D04D940F25D51084800F0C3F825B1CE
:10067000074A53691C43546138BD054A536923EA4C
:100680000404546138BD00BFA8FF81CEA416000841
:100690000010024038B504460D460E4B034003B926
:1006A00020B940F2AC510C4800F0A4F8012D04D957
:1006B00040F2AD51084800F09DF825B1074AD369D2
:1006C0001C43D46138BD054AD36923EA0404D461CC
:1006D00038BD00BFC83701CDA41600080010024085
:1006E00038B504460D46264B984227D0B0F1804FCE
:1006F00024D0A3F59433984220D003F58063984228
:100700001CD003F50063984218D003F5806398422B
:1007100014D003F59033984210D003F5406398420B
:100720000CD003F58063984208D003F580639842AB
:1007300004D040F63341134800F05CF86B1E9BB2C6
:10074000012B10D9042D0ED0082D0CD0102D0AD05D
:10075000202D08D0402D06D0802D04D040F6344105
:10076000084800F047F82269E3682B40154202D0A0
:100770001BB9002038BD002038BD012038BD00BFA6
:10078000002C0140D4160008FEE700BF08B503485E
:1007900000F052F80120FFF7F7FF00BF0417000830
:1007A00008B50D4B1B6813B90C4A0B4B1A600A4B6A
:1007B0001A68C31C23F00303134409498B4206D96A
:1007C00000F0B8FA0C2303604FF0FF3008BD024977
:1007D0000B60104608BD00BFAC0000204C0100209B
:1007E000009C002001230360014B0B60704700BF99
:1007F0000400002008B50A460146024800F004F84B
:10080000FFF7C4FF581700080FB400B583B004AB5E
:1008100053F8042B01938021064800F0CFFA0028FA
:1008200003DD0146034800F03BF803B05DF804EB3C
:1008300004B07047B400002010B5044600F08BFAF5
:100840000146204600F02CF80121024800F028F86B
:1008500010BD00BF4818000810B400221AE04FF085
:100860006043D3F8803E13F0010F06D04FF0604391
:10087000D3F8003E13F0010F01D110460DE04FF008
:1008800060431B68002BFAD004784FF060431C7063
:10089000013201308A42E2D3084610BC704700BFE3
:1008A00008B5FFF7D9FF08BD08B500F0DDF8024B29
:1008B000024A9A6008BD00BF00ED00E00000000899
:1008C00008B500F003F908BDF8B504460D46174613
:1008D0001E462648FFF798FF21682548FFF794FF3A
:1008E00061682448FFF790FFA1682348FFF78CFF59
:1008F000E1682248FFF788FF21692148FFF784FF5C
:1009000061692048FFF780FFA1691F48FFF77CFF5E
:10091000E1691E48FFF778FF1D48FFF775FF29467C
:100920001C48FFF771FF1C4CE16A1C48FFF76CFF85
:10093000216B1B48FFF768FFE16B1A48FFF764FF64
:1009400015F0800F03D039461748FFF75DFF15F407
:10095000004F03D031461548FFF756FF1448FFF704
:1009600053FF06991348FFF74FFFF8BDB017000873
:10097000C0170008D0170008E0170008F01700089B
:100980000018000810180008201800083018000887
:10099000401800084C18000800ED00E05C18000842
:1009A0006C1800087C1800088C1800089C180008B7
:1009B000AC180008B418000882B00023019300931B
:1009C000274A136843F480331360254B1B6803F4F4
:1009D00000330093019B01330193009B1BB9019BE2
:1009E000B3F5A06FF1D11E4B1B6813F4003F02D08A
:1009F0000123009301E000230093009B012B2CD1E5
:100A00001222184B1A60A3F580535A685A605A682C
:100A10005A605A6842F480625A605A6822F47C1222
:100A20005A605A6842F4E8125A601A6842F08072BA
:100A30001A600B4B1B6813F0007FFAD0084B5A6802
:100A400022F003025A605A6842F002025A60044BD4
:100A50005B6803F00C03082BF9D102B0704700BFAC
:100A6000001002400020024008B5144B1A6842F002
:100A700001021A605968124A0A405A601A6822F044
:100A8000847222F480321A601A6822F480221A607A
:100A90005A6822F4FE025A60DA6A22F00F02DA6221
:100AA000196B084A0A401A6300229A60FFF784FF14
:100AB0004FF00062044B9A6008BD00BF0010024076
:100AC0000CC07FF8CCFC00FF00ED00E01D4B5B6824
:100AD00003F00C03042B06D0082B08D01BBB1A4ACA
:100AE0001A4B1A6022E0184A184B1A601EE0154A89
:100AF00053685268C3F38343023312F4803F05D135
:100B0000134A02FB03F3114A13600FE00D4AD26A45
:100B100002F00F02511C0C4AB2FBF1F202FB03F38C
:100B20000A4A136002E0084A084B1A60054B5B68EA
:100B3000C3F30313074AD35CDAB204490B68D3400A
:100B40000B6070470010024000127A001C00002069
:100B500000093D000C00002008B500F09DF800F0F1
:100B6000A9F80021012000F005F80121084600F055
:100B700001F8F6E708B5012802D002280ED008BD1A
:100B8000012905D04FF480610B48FFF7E7FC08BD51
:100B90004FF480610848FFF7B7FC08BD012905D074
:100BA0004FF400610448FFF7D9FC08BD4FF4006121
:100BB0000148FFF7A9FC08BD00080048704700BFC6
:100BC000FEE700BFFEE700BFFEE700BFFEE700BF95
:100BD000704700BF704700BF704700BF074B1B68DE
:100BE0001BB1064A1368013B1360054B1B681BB120
:100BF000034A1368013B1360704700BF34010020B3
:100C00003801002008B510210648FFF769FD38B10A
:100C1000044A136923F010031361032000F02CF839
:100C200008BD00BF00040040704700BF10B582B08F
:100C3000044601210D4B53F82000FFF705FD0C4B36
:100C400033F81430009301238DF8043000228DF81E
:100C500006208DF8073003238DF805306946054BD3
:100C600053F82400FFF7C4FB02B010BDF8180008C9
:100C70001819000820000020054B53F820108B8A1B
:100C80009AB2044B33F8103053408B82704700BF48
:100C90002000002018190008044B09225A60F02196
:100CA000034A82F8231003221A60704710E000E024
:100CB00000ED00E030B583B001210220FFF7EAFC2F
:100CC0001D238DF8043000258DF8055001248DF882
:100CD00006408DF8074001A8FFF76AFC2846FFF799
:100CE000A5FF2046FFF7A2FF0220FFF79FFF03208A
:100CF000FFF79CFF0E4B1A8892B222F0100292B2BC
:100D00001A809A6822F4803222F007029A6048F62C
:100D1000A042DA624FF4FA621A855C61DA6842F046
:100D20001002DA601A8892B222431A8003B030BDF2
:100D300000040040014B1868704700BFA00000206D
:100D400010B5431E0A44914204D011F8014B03F838
:100D5000014FF8E710BD034613F8012B002AFBD121
:100D6000181A0138704730B5141E05469BB0184656
:100D700004DA8B232B604FF0FF301DE04FF4027339
:100D8000ADF80C3014BF04F1FF33234602930593F2
:100D90004FF6FF7300910491ADF80E3002461E9B92
:100DA0006946284600F072F8431CBCBF8B232B60B9
:100DB00014B1009B00221A701BB030BD07B5009320
:100DC00013460A46014603480068FFF7CCFF03B00C
:100DD0005DF804FBA00000202DE9F0478E689E42DC
:100DE00082460C46914698463ED88A8912F4906F06
:100DF0003AD0256809696F1A6569022305EB450534
:100E000095FBF3F57B1C43449D4238BF1D465305BB
:100E10000FD5294600F07EFB064698B13A46216977
:100E2000FFF78EFFA38923F4906343F08003A3812F
:100E300013E02A4600F0C2FB064670B9216950460D
:100E400000F022FB0C23CAF80030A38943F04003D2
:100E5000A3814FF0FF30BDE8F087266165613E4415
:100E6000ED1B2660A5604646464528BF46463246ED
:100E70004946206800F0ECFAA3689B1BA360236836
:100E80001E4426600020BDE8F08700002DE9F04FE9
:100E90009DB0804603938B891C060D4616460DD5E2
:100EA0000B695BB9402100F035FB2860286118B957
:100EB0000C23C8F80030CDE040236B610023099378
:100EC00020238DF82930DFF89CB130238DF82A30AB
:100ED00037463C4614F8013B1BB9B7EB060910D066
:100EE00003E0252BF9D02746F3E74B463246294647
:100EF0004046FFF771FF013000F0A780099B4B448B
:100F000009933B78002B00F0A08000234FF0FF32C4
:100F100004930793059206938DF853301A93012694
:100F2000052221784E4800F043FA671C049B38B133
:100F30004B4A801A06FA00F0184304903C46EFE74B
:100F4000D90644BF20228DF853201A0744BF2B2214
:100F50008DF8532022782A2A03D0079A00210A20EC
:100F60000BE0039A111D12680391002A10DA524215
:100F700043F00200079204900BE0274601343B78CF
:100F8000303B092B03D800FB02320121F5E701B108
:100F900007923B782E2B1ED17B782A2B0AD1039BFC
:100FA0001A1D1B680392002BB8BF4FF0FF330237A6
:100FB000059310E000230593781C19460A24074680
:100FC00001303A78303A092A03D804FB0121012381
:100FD000F5E703B1059103223978224800F0E8F9DA
:100FE00040B14023CBEB000003FA00F0049B184310
:100FF0000490013739781C488DF8281006227E1C91
:1010000000F0D6F988B1194B33B9039B073323F0AD
:1010100007030833039314E003AB00932A46144BF1
:1010200004A94046AFF3008007E003AB00932A46D3
:101030000F4B04A9404600F093F8B0F1FF3F824601
:1010400003D0099B5344099342E7AB895B0601D463
:10105000099801E04FF0FF301DB0BDE8F08F00BFF0
:101060002A1900083019000834190008000000008F
:10107000D90D00082DE9F04791461F460A698B6893
:10108000DDF820809342B8BF1346C9F8003091F8CC
:10109000432006460C4612B10133C9F800302368DC
:1010A000990642BFD9F800300233C9F800302568EC
:1010B00015F0060510D104F1190A07E00123524684
:1010C00039463046C04701301AD00135E368D9F8B7
:1010D00000209B1A9D42F1DB94F8433022680033D4
:1010E00018BF012392060FD5E1185A1C302081F851
:1010F0004300224494F8451082F84310023303E081
:101100004FF0FF30BDE8F08704F143023946304626
:10111000C0470130F4D02268D9F80050E36802F0EB
:101120000602042A08BF5D1B2269A3680CBF25EADA
:10113000E57500259342C4BF9B1AED184FF00009D6
:101140001A344D4509D00123224639463046C0475E
:101150000130D5D009F10109F3E70020BDE8F0879F
:101160002DE9F04317460A7E85B06E2A984606465A
:101170000C460C9B01F1430E00F0AE8011D8632A9F
:1011800022D009D8002A00F0BB80582A40F0CA803B
:1011900081F84520834955E0642A1ED0692A1CD075
:1011A000C0E0732A00F0B08009D86F2A2ED0702AD0
:1011B00040F0B8800A6842F020020A603EE0752ADA
:1011C00024D0782A3AD0ADE01A6801F14205111D09
:1011D0001960136884F84230A8E021681A6811F099
:1011E000800F02D0111D196008E011F0400F02F1CC
:1011F0000401196002D0B2F9003000E01368002B3E
:101200003CDA2D225B4284F8432037E021681A68DB
:1012100011F0800F02D0111D196007E011F0400F8E
:1012200002F10401196001D0138800E01368227EE6
:101230005C496F2A14BF0A2208221BE078225A490F
:1012400084F845202268186812F0800F00F1040528
:101250001D6003D1550601D5038800E00368D0075F
:1012600044BF42F0200222601BB9226822F0200213
:1012700022601022002084F8430001E049490A223C
:101280006568A560002D08DB206820F00400206060
:101290002BB9002D7DD175460CE0002B79D0754619
:1012A000B3FBF2F002FB1033CB5C05F8013D0346C3
:1012B0000028F5D1082A0BD12368DA0708D523695D
:1012C00062689A42DEBF302305F8013C05F1FF3524
:1012D000C5EB0E0323612EE008681A68496910F017
:1012E000800F03D0101D1860136808E010F0400F45
:1012F00002F104001860136801D0198000E0196041
:1013000000232361754616E01A68111D19601568DF
:1013100062680021284600F04BF808B1401B60606D
:10132000636804E004F1420584F84220012323614C
:10133000002384F84330CDF800803B4603AA2146C1
:101340003046FFF797FE013002D14FF0FF3026E024
:1013500023692A4639463046C0470130F5D0236814
:101360009B0710D5002504F1190907E001234A461F
:1013700039463046C0470130E7D00135E368039A6B
:101380009B1A9D42F2DBE068039B9842B8BF184667
:1013900005E00B7884F8423004F142058AE705B095
:1013A000BDE8F0833B1900084C190008000000005C
:1013B00001F0FF01102A2BDB10F0070F08D010F806
:1013C000013B013A8B422DD010F0070F42B3F6D10A
:1013D000F0B441EA012141EA014122F007047FF023
:1013E00000070023F0E80256083C85EA010586EA7A
:1013F000010685FA47F5A3FA87F586FA47F6A5FAB6
:1014000087F68EB9EED1F0BC01F0FF0102F00702C1
:1014100032B110F8013B013A83EA010313B1F8D16C
:101420000020704701387047002D06BF354603384D
:10143000073815F0010F07D1013015F4807F02BF86
:10144000013015F4C03F0130F0BC0138704700BFD7
:10145000884210B501EB020301D8421E0BE098420E
:10146000FBD28118D21AD34204D013F8014D01F8EF
:10147000014DF8E710BD994204D011F8014B02F874
:10148000014FF8E710BD000030B500293ED051F8FB
:10149000042C0B1F1E49002AB8BF9B180A680C4673
:1014A00012B95A600B6030BD9A420ED919685818AB
:1014B000824204BF106852685A6004BF091819605C
:1014C000236030BD994203D80A4651680029F9D1FA
:1014D000146815199D420AD11B682344D018814213
:1014E000136013D10868034413604B680DE002D900
:1014F0000C23036030BD18681C18A14204BF0C689F
:101500004968596004BF00191860536030BD00BFBE
:101510004001002070B5CD1C25F0030508350C2DC9
:1015200038BF0C25002D064603DA0C23336000205B
:1015300070BDA942F9D81F4B1C681A462146A1B1BB
:101540000B685B1B0ED40B2B03D90B60CC18CD5052
:101550001EE08C420DBF63684B686360136018BF68
:101560000C4615E00C464968E9E7134C23681BB9A3
:10157000304600F049F820602946304600F044F833
:10158000431CD2D0C41C24F00304A0420AD125601D
:1015900004F10B00231D20F00700C31A09D05A42A2
:1015A000E25070BD211A304600F02EF80130EED125
:1015B000BBE770BD400100203C010020F8B50746A4
:1015C00015460E4621B91146BDE8F840FFF7A2BF07
:1015D0001AB9FFF759FF2846F8BD00F025F88542F3
:1015E0000ED929463846FFF795FF044650B13146DB
:1015F0002A46FFF7A5FB31463846FFF745FF01E0D5
:101600003046F8BD2046F8BD38B5064C00230546E7
:1016100008462360FFF7C4F8431C02D1236803B1D6
:101620002B6038BD4401002051F8040C0028BEBFD7
:10163000091851F8043CC018043870472E2E2F7337
:10164000797374656D2F7372632F73746D333266A3
:10165000332D7374647065726970682F73746D33A1
:1016600032663330785F6770696F2E630000000068
:101670002E2E2F73797374656D2F7372632F7374AD
:101680006D333266332D7374647065726970682FC0
:1016900073746D3332663330785F6D6973632E63B4
:1016A000000000002E2E2F73797374656D2F7372F6
:1016B000632F73746D333266332D73746470657287
:1016C0006970682F73746D3332663330785F72637C
:1016D000632E63002E2E2F73797374656D2F7372D2
:1016E000632F73746D333266332D73746470657257
:1016F0006970682F73746D3332663330785F746944
:101700006D2E630061626F727428292C20657869E0
:1017100074696E672E2E2E002C2066756E637469B8
:101720006F6E3A2000000000617373657274696F18
:101730006E2022257322206661696C65643A2066FA
:10174000696C6520222573222C206C696E6520252A
:1017500064257325730A00006173736572745F708A
:101760006172616D2829206661696C65643A206642
:10177000696C6520222573222C206C696E652025FA
:10178000640A00006D61696E28617267633D2564BB
:101790002C20617267763D5B000000002C20000069
:1017A00022257322000000005D293B0A0000000092
:1017B000537461636B206672616D653A0A000000C4
:1017C000205230203D2020253038580A00000000EB
:1017D000205231203D2020253038580A00000000DA
:1017E000205232203D2020253038580A00000000C9
:1017F000205233203D2020253038580A00000000B8
:1018000020523132203D20253038580A0000000097
:10181000204C52203D2020253038580A000000007E
:10182000205043203D2020253038580A0000000079
:1018300020505352203D20253038580A0000000027
:101840004653522F4641523A0A0000002043465365
:1018500052203D2020253038580A000020484653A9
:1018600052203D2020253038580A0000204446539D
:1018700052203D2020253038580A00002041465390
:1018800052203D2020253038580A0000204D4D467A
:101890004152203D20253038580A00002042464160
:1018A00052203D2020253038580A00004D697363CE
:1018B0000A000000204C522F4558435F52455455B2
:1018C000524E3D20253038580A0000005B486172B6
:1018D000644661756C745D0A000000005B427573BC
:1018E0004661756C745D0A005B557361676546619E
:1018F000756C745D0A0000000000200000002000EC
:101900000000200000002000000020000000200057
:101910000000200000002000000200010004008000
:1019200000080040001000204300232D302B200031
:10193000686C4C0065666745464700303132333489
:101940003536373839414243444546003031323329
:0D19500034353637383961626364656600EE
:1019600078563412B0000020000000000000000093
:1019700000000000010203040607080900A24A044F
:1019800000100048001000480010004800100048F7
:1019900000100048001000480010004800100048E7
:1019A0000000000000000000000000000000000037
:1019B0000000000000000000000000000000000027
:1019C00028190008000000000000000000000000CE
:1019D0000000000000000000000000000000000007
:1019E00000000000000000000000000000000000F7
:1019F00000000000000000000000000000000000E7
:081A00004000002032547698EA
:040000050800018965
:00000001FF
